:100000000C942A000C94EA000C9447000C944700CE
:100010000C9447000C9447000C9447000C94470044
:100020000C9447000C9447000C9447000C94470034
:100030000C9447000C9447000C9447000C94470024
:100040000C9447000C9447000C9447000C94470014
:100050000C94470011241FBECFE5D8E0DEBFCDBF12
:1000600010E0A0E6B0E0E0EAF3E002C005900D92F7
:10007000A837B107D9F710E0A8E7B0E001C01D929A
:10008000AC37B107E1F70E9415010C94CE010C9436
:100090000000959A00000000959808951ABA949A65
:1000A000939802C00E944900DF99FCCF8FEF8ABB72
:1000B00008951F93182F0E944E001BBB949893988D
:1000C0000E9449001BBA1F9108951F9381B3886352
:1000D00081BB80E395E70197F1F781E00E94590029
:1000E00080EA9FE00197F1F788E30E94590015E844
:1000F000812F8A95F1F78EE00E9459001A95F1F749
:100100001F9108951F93182F0E944E001BBB9498B7
:10011000939A0E9449001BBA1F910895CF93DF93D1
:10012000EC0103C021960E94820088818823D1F7C8
:10013000DF91CF9108958158E5E7F0E0E60FF11DDA
:100140009081890F0E94590008958FEF84BB40E091
:1001500050E0AFEF68EC70E0A5BB80E29EE4FB01ED
:100160003197F1F70197D9F715BA80E29EE4FB01C8
:100170003197F1F70197D9F720E030E0A5BB88E887
:1001800093E1FB013197F1F70197D9F715BA88E8A8
:1001900093E1FB013197F1F70197D9F7A5BB88EE01
:1001A00093E0FB013197F1F70197D9F715BA88EE83
:1001B00093E0FB013197F1F70197D9F72F5F3F4F9C
:1001C00022303105D9F64F5F5F4F4A30510509F0B3
:1001D000C3CF08951F920F920FB60F9211248F93E1
:1001E0009F938091780090917900892B51F48EB57E
:1001F00081608EBD81E090E09093790080937800DB
:100200000DC01EBC8CB59DB590937B0080937A0089
:100210001DBC1CBC10927900109278009F918F91A8
:100220000F900FBE0F901F901895DF92EF92FF92E4
:100230000F931F93DF93CF93CDB7DEB760970FB6C1
:10024000F894DEBF0FBECDBF0E9465008BEF81BB6F
:1002500080ED97E028EC30E0F9013197F1F7019754
:10026000D9F70E9465008BB780648BBF85B781602A
:1002700085BF789485E3D82E7E010894E11CF11C9B
:100280000E94A500909A8D2D8A95F1F79098009183
:100290007A0010917B0080E690E00E948E0081E061
:1002A00062E00E949B0087E690E00E948E00C801F9
:1002B0006AE370E00E947601CB01B7014AE050E0AA
:1002C0000E949D01C7010E948E0081E790E00E947C
:1002D0008E008DE062E00E949B0083E790E00E9428
:1002E0008E0081E061E00E949B00CACF97FB092E3F
:1002F00007260AD077FD04D00CD006D000201AF4CF
:10030000709561957F4F0895F6F7909581959F4F71
:100310000895AA1BBB1B51E107C0AA1FBB1FA6174C
:10032000B70710F0A61BB70B881F991F5A95A9F79E
:1003300080959095BC01CD010895FB019F01E89443
:100340004230C4F04532B4F44A3029F497FB1EF42D
:10035000909581959F4F642F77270E948901805D3A
:100360008A330CF0895D8193CB010097A1F716F4D5
:100370005DE251931082C9010C94BE01DC01FC01C5
:10038000672F71917723E1F7329704C07C916D93C9
:1003900070836291AE17BF07C8F30895F894FFCF3A
:1003A0005374617475730044697374616E63653D61
:0803B000002000636D00004015
:00000001FF
